8=FIX.4.4|9=311|35=S|34=252|49=WFS_XYZ_TEST_12345_DLRDPL${onetonine}|52=${effectiveTimestamp}|56=TARGETCOMPID1|44=0.1175000|54=P|55=[N/A]|60=${effectiveTimestampNoMicro}.131|117=SEFQA11320131216|131=TRD_20131216_WFS_TRSY_2_4_1|423=101|537=211|555=2|600=[N/A]|566=98.4921875|624=1|686=1|824=TRD_TRSY_2|600=[N/A]|624=P|686=6|824=TRD_XYZ_2|10=107|
