8=FIX.4.4_9=311_35=S_34=252_49=WFS_XYZ_TEST_12345_DLRDPL${onetonine}_52=${effectiveTimestamp}_56=TARGETCOMPID1_44=0.1175000_54=P_55=[N/A]_60=${effectiveTimestampNoMicro}.131_117=SEFQA11320131216_131=TRD_20131216_WFS_TRSY_2_4_1_423=101_537=211_555=2_600=[N/A]_566=98.4921875_624=1_686=1_824=TRD_TRSY_2_600=[N/A]_624=P_686=6_824=TRD_XYZ_2_10=107_